{
  "contractName": "CoinFlip",
  "abi": [
    {
      "constant": false,
      "inputs": [],
      "name": "bet",
      "outputs": [
        {
          "internalType": "uint256",
          "name": "",
          "type": "uint256"
        }
      ],
      "payable": true,
      "stateMutability": "payable",
      "type": "function"
    },
    {
      "constant": true,
      "inputs": [],
      "name": "getContractBalance",
      "outputs": [
        {
          "internalType": "uint256",
          "name": "",
          "type": "uint256"
        }
      ],
      "payable": false,
      "stateMutability": "view",
      "type": "function"
    }
  ],
  "bytecode": "0x608060405260008055602860015534801561001957600080fd5b50610271806100296000396000f3fe6080604052600436106100295760003560e01c806311610c251461002e5780636f9fb98a1461004c575b600080fd5b610036610077565b6040518082815260200191505060405180910390f35b34801561005857600080fd5b50610061610178565b6040518082815260200191505060405180910390f35b600080479050678ac7230489e80000341015801561009d5750671bc16d674ec800008110155b6100a657600080fd5b60006002340290508181111561010d573373ffffffffffffffffffffffffffffffffffffffff166108fc600284816100da57fe5b0434039081150290604051600060405180830381858888f19350505050158015610108573d6000803e3d6000fd5b508190505b610118600154610180565b1561016e573373ffffffffffffffffffffffffffffffffffffffff166108fc829081150290604051600060405180830381858888f19350505050158015610163573d6000803e3d6000fd5b508092505050610175565b6000925050505b90565b600047905090565b60008061018d60646101ae565b90508260640381106101a35760019150506101a9565b60009150505b919050565b60008060008154809291906001019190505550814233600054604051602001808481526020018373ffffffffffffffffffffffffffffffffffffffff1673ffffffffffffffffffffffffffffffffffffffff1660601b815260140182815260200193505050506040516020818303038152906040528051906020012060001c8161023457fe5b06905091905056fea265627a7a72315820d2a45db0df31a7cf8cb19fb739b2b59b970cbf5ae22cf5ed838564c91406435c64736f6c63430005100032",
  "source": "pragma solidity ^0.5.0;\n\ncontract CoinFlip {\n    uint randNonce = 0;\n    uint winningChance = 40; // in %\n\n    function bet() external payable returns (uint) {\n        uint contractBalance = address(this).balance;\n        require(msg.value >= 10 ether && contractBalance >= 2 ether);\n        uint winningMoney = msg.value * 2;\n        if (winningMoney > contractBalance) {\n            msg.sender.transfer(msg.value - contractBalance / 2);\n            winningMoney = contractBalance;\n        }\n        if (flip(winningChance)) {\n            msg.sender.transfer(winningMoney);\n            return winningMoney;\n        }\n        return 0;\n    }\n\n    function flip(uint _winningChance) private returns (bool) {\n        uint random100 = randMod(100);\n        if (random100 >= 100 - _winningChance) {\n            return true; // Sender won\n        }\n        return false; // Sender lost\n    }\n\n    function randMod(uint _modulus) internal returns (uint) {\n        randNonce++;\n        return uint(keccak256(abi.encodePacked(now, msg.sender, randNonce))) % _modulus;\n    }\n\n    // Retrieving the adopters\n    function getContractBalance() external view returns (uint) {\n        return address(this).balance;\n    }\n}",
  "sourcePath": "/Users/john/Documents/Code/Ethereum-Coin-Flip/Pet-Shop/contracts/CoinFlip.sol",
  "compiler": {
    "name": "solc",
    "version": "0.5.16+commit.9c3226ce.Emscripten.clang"
  },
  "schemaVersion": "3.3.3",
  "updatedAt": "2020-12-23T21:50:16.289Z",
  "networkType": "ethereum",
  "devdoc": {
    "methods": {}
  },
  "userdoc": {
    "methods": {}
  }
}